:020000040000FA
:10000000831610308600003087000E3085000730E0
:100010009F008312C0309F000230B0000630D10034
:1000200006131F2882070234DA34443450349834DB
:10003000303420345A3400341034FF34BF34A40137
:10004000A501A601A701B601B4010130B500B301B5
:10005000CA30C8000630C7003D30A800360812205C
:1000600087008611D22186153508122087000611D7
:10007000D22106153408122087008610D22186145A
:100080003308122087000610D2210614A80B2E2850
:10009000C70B2C28051964280230340203195D2887
:1000A000B30A0A303302031D6428B40AB3010330D3
:1000B0003402031D6428B4016428B30A04303302F7
:1000C000031D6428B301B40185188028500BD00AA1
:1000D0000230360203197928B50A0A303502031DA9
:1000E0008028B60AB50103303602031D8028B60108
:1000F0008028B50A04303502031D8028B601B501F9
:10010000EA210630510203198728D10A8928851D62
:10011000DB29C80B2A28A92128280000CA30C800DA
:100120000C30C700E420CC30EE204430EE203221E9
:10013000E420CC30EE20BE30EE200221B9000221B6
:10014000C0001921C720CF203B30A800B820A80B41
:10015000A628C70BA428EA21063051020319B228A9
:10016000D10AB428851DE529C80B9028A9218E281D
:10017000861406154508122087008610D2218614A1
:100180004408122087000611D22106150800C2017A
:100190004108C11F0800C20A4109013E0800C6000B
:1001A000C301C401C50164304602031CDA28C30A36
:1001B000C600D3280A304602031CE128C40AC60040
:1001C000DA284608C50008000612831606128312B4
:1001D000282183160616831228210800B70008304C
:1001E000B80006128316061283124C21B70C831630
:1001F0000318061683122121831606168312B80BE4
:10020000F12808000830B80006128316061283127F
:100210004C214C214C218316061683124C214C2173
:100220000310061A0314B70C2121B80B0429370850
:100230000800F0303905C1000F304005C104C10E7F
:1002400008006230A100A10B232900000000080073
:100250000530A200A530A100A10B2C29A20B2A2950
:10026000000008000330A200C830A100A10B36290D
:10027000A20B3429000000000800AD30A1001330AB
:10028000A2000630A300A10B4329A20B4329A30B14
:1002900043290000000008000130A100A10B4E29F5
:1002A00000000800CA30C8000630C7003D30A80072
:1002B0002408122087008611D221861525081220D5
:1002C00087000611D2210615260812208700861005
:1002D000D22186142708122087000610D221061486
:1002E000A80B5829C70B5629EA2105198329A70A03
:1002F0000A302702031D8329A60AA7010630260219
:10030000031D8329A60185189D29023024020319A3
:100310009629A50A0A302502031D9D29A40AA501D4
:1003200003302402031D9D29A4019D29A50A043040
:100330002502031D9D29A401A501063051020319C0
:10034000A329D10AA529851DE029C80B5429A92173
:100350005229093027020319AF29A70A0800A7016B
:10036000053026020319B629A60A0800A6012408AA
:10037000023C0319CA29093025020319C129A50A1B
:100380000800A501023024020319C829A40A0800A4
:10039000A4010800A601A50A04302502031D0800D7
:1003A000A501C8294B30A1000230A200A10BD6291B
:1003B000A20BD62908000130A800C700D101582996
:1003C0000130A800C700D1018E280130A800C70065
:1003D000D1012E28061BF62924083602031D080029
:1003E00025083502031D08000617080024083402FA
:1003F000031D080025083302031D0800061308002A
:10040000FF3FFF3FFF3FFF3FFF3FFF3FFF3FFF3FFC
:10041000FF3FFF3FFF3FFF3FFF3FFF3FFF3FFF3FEC
:10042000FF3FFF3FFF3FFF3FFF3FFF3FFF3FFF3FDC
:10043000FF3FFF3FFF3FFF3FFF3FFF3FFF3FFF3FCC
:02400E003A3D39
:08400000FF3FFF3FFF3FFF3FC0
:00000001FF
